{
  "_format": "hh-sol-artifact-1",
  "contractName": "Governance",
  "sourceName": "contracts/Governance.sol",
  "abi": [
    {
      "inputs": [],
      "stateMutability": "nonpayable",
      "type": "constructor"
    },
    {
      "inputs": [
        {
          "internalType": "address",
          "name": "owner",
          "type": "address"
        }
      ],
      "name": "OwnableInvalidOwner",
      "type": "error"
    },
    {
      "inputs": [
        {
          "internalType": "address",
          "name": "account",
          "type": "address"
        }
      ],
      "name": "OwnableUnauthorizedAccount",
      "type": "error"
    },
    {
      "anonymous": false,
      "inputs": [
        {
          "indexed": true,
          "internalType": "address",
          "name": "previousOwner",
          "type": "address"
        },
        {
          "indexed": true,
          "internalType": "address",
          "name": "newOwner",
          "type": "address"
        }
      ],
      "name": "OwnershipTransferred",
      "type": "event"
    },
    {
      "anonymous": false,
      "inputs": [
        {
          "indexed": true,
          "internalType": "uint256",
          "name": "id",
          "type": "uint256"
        },
        {
          "indexed": true,
          "internalType": "address",
          "name": "proposer",
          "type": "address"
        },
        {
          "indexed": false,
          "internalType": "string",
          "name": "title",
          "type": "string"
        },
        {
          "indexed": false,
          "internalType": "string",
          "name": "url",
          "type": "string"
        }
      ],
      "name": "ProposalCreated",
      "type": "event"
    },
    {
      "anonymous": false,
      "inputs": [
        {
          "indexed": true,
          "internalType": "uint256",
          "name": "id",
          "type": "uint256"
        },
        {
          "indexed": true,
          "internalType": "address",
          "name": "voter",
          "type": "address"
        },
        {
          "indexed": false,
          "internalType": "bool",
          "name": "support",
          "type": "bool"
        }
      ],
      "name": "VoteCast",
      "type": "event"
    },
    {
      "inputs": [
        {
          "internalType": "uint256",
          "name": "id",
          "type": "uint256"
        }
      ],
      "name": "close",
      "outputs": [],
      "stateMutability": "nonpayable",
      "type": "function"
    },
    {
      "inputs": [
        {
          "internalType": "string",
          "name": "title",
          "type": "string"
        },
        {
          "internalType": "string",
          "name": "description",
          "type": "string"
        },
        {
          "internalType": "string",
          "name": "url",
          "type": "string"
        }
      ],
      "name": "createProposal",
      "outputs": [
        {
          "internalType": "uint256",
          "name": "",
          "type": "uint256"
        }
      ],
      "stateMutability": "nonpayable",
      "type": "function"
    },
    {
      "inputs": [
        {
          "internalType": "uint256",
          "name": "id",
          "type": "uint256"
        }
      ],
      "name": "getProposal",
      "outputs": [
        {
          "components": [
            {
              "internalType": "uint256",
              "name": "id",
              "type": "uint256"
            },
            {
              "internalType": "string",
              "name": "title",
              "type": "string"
            },
            {
              "internalType": "string",
              "name": "description",
              "type": "string"
            },
            {
              "internalType": "string",
              "name": "url",
              "type": "string"
            },
            {
              "internalType": "address",
              "name": "proposer",
              "type": "address"
            },
            {
              "internalType": "uint256",
              "name": "createdAt",
              "type": "uint256"
            },
            {
              "internalType": "uint256",
              "name": "forVotes",
              "type": "uint256"
            },
            {
              "internalType": "uint256",
              "name": "againstVotes",
              "type": "uint256"
            },
            {
              "internalType": "bool",
              "name": "closed",
              "type": "bool"
            }
          ],
          "internalType": "struct Governance.Proposal",
          "name": "",
          "type": "tuple"
        }
      ],
      "stateMutability": "view",
      "type": "function"
    },
    {
      "inputs": [],
      "name": "getProposalCount",
      "outputs": [
        {
          "internalType": "uint256",
          "name": "",
          "type": "uint256"
        }
      ],
      "stateMutability": "view",
      "type": "function"
    },
    {
      "inputs": [
        {
          "internalType": "uint256",
          "name": "",
          "type": "uint256"
        },
        {
          "internalType": "address",
          "name": "",
          "type": "address"
        }
      ],
      "name": "hasVoted",
      "outputs": [
        {
          "internalType": "bool",
          "name": "",
          "type": "bool"
        }
      ],
      "stateMutability": "view",
      "type": "function"
    },
    {
      "inputs": [],
      "name": "nextProposalId",
      "outputs": [
        {
          "internalType": "uint256",
          "name": "",
          "type": "uint256"
        }
      ],
      "stateMutability": "view",
      "type": "function"
    },
    {
      "inputs": [],
      "name": "owner",
      "outputs": [
        {
          "internalType": "address",
          "name": "",
          "type": "address"
        }
      ],
      "stateMutability": "view",
      "type": "function"
    },
    {
      "inputs": [
        {
          "internalType": "uint256",
          "name": "",
          "type": "uint256"
        }
      ],
      "name": "proposals",
      "outputs": [
        {
          "internalType": "uint256",
          "name": "id",
          "type": "uint256"
        },
        {
          "internalType": "string",
          "name": "title",
          "type": "string"
        },
        {
          "internalType": "string",
          "name": "description",
          "type": "string"
        },
        {
          "internalType": "string",
          "name": "url",
          "type": "string"
        },
        {
          "internalType": "address",
          "name": "proposer",
          "type": "address"
        },
        {
          "internalType": "uint256",
          "name": "createdAt",
          "type": "uint256"
        },
        {
          "internalType": "uint256",
          "name": "forVotes",
          "type": "uint256"
        },
        {
          "internalType": "uint256",
          "name": "againstVotes",
          "type": "uint256"
        },
        {
          "internalType": "bool",
          "name": "closed",
          "type": "bool"
        }
      ],
      "stateMutability": "view",
      "type": "function"
    },
    {
      "inputs": [],
      "name": "renounceOwnership",
      "outputs": [],
      "stateMutability": "nonpayable",
      "type": "function"
    },
    {
      "inputs": [
        {
          "internalType": "address",
          "name": "newOwner",
          "type": "address"
        }
      ],
      "name": "transferOwnership",
      "outputs": [],
      "stateMutability": "nonpayable",
      "type": "function"
    },
    {
      "inputs": [
        {
          "internalType": "uint256",
          "name": "id",
          "type": "uint256"
        },
        {
          "internalType": "bool",
          "name": "support",
          "type": "bool"
        }
      ],
      "name": "vote",
      "outputs": [],
      "stateMutability": "nonpayable",
      "type": "function"
    }
  ],
  "bytecode": "0x60806040526001805534801561001457600080fd5b50338061003b57604051631e4fbdf760e01b81526000600482015260240160405180910390fd5b6100448161004a565b5061009a565b600080546001600160a01b038381166001600160a01b0319831681178455604051919092169283917f8be0079c531659141344cd1fd0a4f28419497f9722a3daafe3b4186f6b6457e09190a35050565b611083806100a96000396000f3fe608060405234801561001057600080fd5b50600436106100a95760003560e01c8063715018a611610071578063715018a61461015c5780638da5cb5b14610164578063c08cc02d1461017f578063c7f758a814610187578063c9d27afe146101a7578063f2fde38b146101ba57600080fd5b8063013cf08b146100ae5780630aebeb4e146100df5780632ab09d14146100f4578063438596321461010b578063583cf37914610149575b600080fd5b6100c16100bc366004610ae9565b6101cd565b6040516100d699989796959493929190610b48565b60405180910390f35b6100f26100ed366004610ae9565b6103ba565b005b6100fd60015481565b6040519081526020016100d6565b610139610119366004610bdf565b600360209081526000928352604080842090915290825290205460ff1681565b60405190151581526020016100d6565b6100fd610157366004610cae565b610451565b6100f26105e5565b6000546040516001600160a01b0390911681526020016100d6565b6100fd6105f9565b61019a610195366004610ae9565b61060e565b6040516100d69190610d36565b6100f26101b5366004610df8565b6108bb565b6100f26101c8366004610e2d565b610a2e565b600260205260009081526040902080546001820180549192916101ef90610e4f565b80601f016020809104026020016040519081016040528092919081815260200182805461021b90610e4f565b80156102685780601f1061023d57610100808354040283529160200191610268565b820191906000526020600020905b81548152906001019060200180831161024b57829003601f168201915b50505050509080600201805461027d90610e4f565b80601f01602080910402602001604051908101604052809291908181526020018280546102a990610e4f565b80156102f65780601f106102cb576101008083540402835291602001916102f6565b820191906000526020600020905b8154815290600101906020018083116102d957829003601f168201915b50505050509080600301805461030b90610e4f565b80601f016020809104026020016040519081016040528092919081815260200182805461033790610e4f565b80156103845780601f1061035957610100808354040283529160200191610384565b820191906000526020600020905b81548152906001019060200180831161036757829003601f168201915b505050600484015460058501546006860154600787015460089097015495966001600160a01b0390931695919450925060ff1689565b6103c2610a6c565b600081815260026020526040812080549091036103fa5760405162461bcd60e51b81526004016103f190610e89565b60405180910390fd5b600881015460ff16156104405760405162461bcd60e51b815260206004820152600e60248201526d105b1c9958591e4818db1bdcd95960921b60448201526064016103f1565b600801805460ff1916600117905550565b6000808451116104945760405162461bcd60e51b815260206004820152600e60248201526d151a5d1b19481c995c5d5a5c995960921b60448201526064016103f1565b6001805490819060006104a683610ecb565b909155505060408051610120810182528281526020808201888152828401889052606083018790523360808401524260a0840152600060c0840181905260e084018190526101008401819052858152600290925292902081518155915190919060018201906105159082610f33565b506040820151600282019061052a9082610f33565b506060820151600382019061053f9082610f33565b5060808201516004820180546001600160a01b0319166001600160a01b0390921691909117905560a0820151600582015560c0820151600682015560e08201516007820155610100909101516008909101805460ff1916911515919091179055604051339082907fe1a39bb955c12c02b24074e4d2e09a80ed84a64ce9b4454b47456e8a26f96e75906105d59089908890610ff3565b60405180910390a3949350505050565b6105ed610a6c565b6105f76000610a99565b565b6000600180546106099190611021565b905090565b6106686040518061012001604052806000815260200160608152602001606081526020016060815260200160006001600160a01b031681526020016000815260200160008152602001600081526020016000151581525090565b600082118015610679575060015482105b6106955760405162461bcd60e51b81526004016103f190610e89565b6002600083815260200190815260200160002060405180610120016040529081600082015481526020016001820180546106ce90610e4f565b80601f01602080910402602001604051908101604052809291908181526020018280546106fa90610e4f565b80156107475780601f1061071c57610100808354040283529160200191610747565b820191906000526020600020905b81548152906001019060200180831161072a57829003601f168201915b5050505050815260200160028201805461076090610e4f565b80601f016020809104026020016040519081016040528092919081815260200182805461078c90610e4f565b80156107d95780601f106107ae576101008083540402835291602001916107d9565b820191906000526020600020905b8154815290600101906020018083116107bc57829003601f168201915b505050505081526020016003820180546107f290610e4f565b80601f016020809104026020016040519081016040528092919081815260200182805461081e90610e4f565b801561086b5780601f106108405761010080835404028352916020019161086b565b820191906000526020600020905b81548152906001019060200180831161084e57829003601f168201915b505050918352505060048201546001600160a01b0316602082015260058201546040820152600682015460608201526007820154608082015260089091015460ff16151560a09091015292915050565b600082815260026020526040812080549091036108ea5760405162461bcd60e51b81526004016103f190610e89565b600881015460ff16156109315760405162461bcd60e51b815260206004820152600f60248201526e141c9bdc1bdcd85b0818db1bdcd959608a1b60448201526064016103f1565b600083815260036020908152604080832033845290915290205460ff161561098b5760405162461bcd60e51b815260206004820152600d60248201526c105b1c9958591e481d9bdd1959609a1b60448201526064016103f1565b60008381526003602090815260408083203384529091529020805460ff1916600117905581156109d55760018160060160008282546109ca919061103a565b909155506109f09050565b60018160070160008282546109ea919061103a565b90915550505b6040518215158152339084907fe71fcdac32df1877c1700e7bda2a03157e20993363a28fc35ac495cefc76e4d49060200160405180910390a3505050565b610a36610a6c565b6001600160a01b038116610a6057604051631e4fbdf760e01b8152600060048201526024016103f1565b610a6981610a99565b50565b6000546001600160a01b031633146105f75760405163118cdaa760e01b81523360048201526024016103f1565b600080546001600160a01b038381166001600160a01b0319831681178455604051919092169283917f8be0079c531659141344cd1fd0a4f28419497f9722a3daafe3b4186f6b6457e09190a35050565b600060208284031215610afb57600080fd5b5035919050565b6000815180845260005b81811015610b2857602081850181015186830182015201610b0c565b506000602082860101526020601f19601f83011685010191505092915050565b60006101208b8352806020840152610b628184018c610b02565b90508281036040840152610b76818b610b02565b90508281036060840152610b8a818a610b02565b6001600160a01b03989098166080840152505060a081019490945260c084019290925260e0830152151561010090910152949350505050565b80356001600160a01b0381168114610bda57600080fd5b919050565b60008060408385031215610bf257600080fd5b82359150610c0260208401610bc3565b90509250929050565b634e487b7160e01b600052604160045260246000fd5b600082601f830112610c3257600080fd5b813567ffffffffffffffff80821115610c4d57610c4d610c0b565b604051601f8301601f19908116603f01168101908282118183101715610c7557610c75610c0b565b81604052838152866020858801011115610c8e57600080fd5b836020870160208301376000602085830101528094505050505092915050565b600080600060608486031215610cc357600080fd5b833567ffffffffffffffff80821115610cdb57600080fd5b610ce787838801610c21565b94506020860135915080821115610cfd57600080fd5b610d0987838801610c21565b93506040860135915080821115610d1f57600080fd5b50610d2c86828701610c21565b9150509250925092565b602081528151602082015260006020830151610120806040850152610d5f610140850183610b02565b91506040850151601f1980868503016060870152610d7d8483610b02565b9350606087015191508086850301608087015250610d9b8382610b02565b9250506080850151610db860a08601826001600160a01b03169052565b5060a085015160c085015260c085015160e085015260e0850151610100818187015280870151915050610dee8286018215159052565b5090949350505050565b60008060408385031215610e0b57600080fd5b8235915060208301358015158114610e2257600080fd5b809150509250929050565b600060208284031215610e3f57600080fd5b610e4882610bc3565b9392505050565b600181811c90821680610e6357607f821691505b602082108103610e8357634e487b7160e01b600052602260045260246000fd5b50919050565b602080825260129082015271141c9bdc1bdcd85b081b9bdd08199bdd5b9960721b604082015260600190565b634e487b7160e01b600052601160045260246000fd5b600060018201610edd57610edd610eb5565b5060010190565b601f821115610f2e57600081815260208120601f850160051c81016020861015610f0b5750805b601f850160051c820191505b81811015610f2a57828155600101610f17565b5050505b505050565b815167ffffffffffffffff811115610f4d57610f4d610c0b565b610f6181610f5b8454610e4f565b84610ee4565b602080601f831160018114610f965760008415610f7e5750858301515b600019600386901b1c1916600185901b178555610f2a565b600085815260208120601f198616915b82811015610fc557888601518255948401946001909101908401610fa6565b5085821015610fe35787850151600019600388901b60f8161c191681555b5050505050600190811b01905550565b6040815260006110066040830185610b02565b82810360208401526110188185610b02565b95945050505050565b8181038181111561103457611034610eb5565b92915050565b8082018082111561103457611034610eb556fea2646970667358221220002ee699e962db3d19e341311d7b7fd335b5ebff591a3a7c30bdaf0f2c1afec664736f6c63430008140033",
  "linkReferences": {},
  "deployedLinkReferences": {}
}